:020000040800F2
:1000000030040020A1010008AB0F0008D90E000841
:10001000A90F00080D0300085D1100080000000092
:10002000000000000000000000000000AF0F00080A
:100030002504000800000000AD0F00088110000832
:10004000BB010008BB010008BB010008BB010008A0
:10005000BB010008BB010008BB010008BB01000890
:1000600055040008BB010008BB010008BB010008E3
:10007000BB010008BB010008BB010008BB01000870
:10008000BB010008BB010008BB010008BB01000860
:10009000BB010008BB010008BB010008BB01000850
:1000A000BB010008BB010008BB010008BB01000840
:1000B000BB010008BB010008BB010008BB01000830
:1000C000BB010008BB010008BB010008BB01000820
:1000D000BB010008BB010008BB010008BB01000810
:1000E0003D040008BB010008BB010008BB0100087B
:1000F000BB010008BB010008BB010008BB010008F0
:10010000BB010008BB010008BB010008BB010008DF
:10011000BB010008BB010008BB010008BB010008CF
:10012000BB010008BB010008BB010008BB010008BF
:10013000BB010008BB010008BB010008BB010008AF
:10014000BB010008BB010008BB010008BB0100089F
:10015000BB010008BB010008BB010008BB0100088F
:10016000BB010008BB010008BB010008BB0100087F
:10017000BB010008BB010008BB0100080000000033
:10018000BB010008BB010008DFF810D000F07CF8CC
:1001900000480047D9110008AFF300803004002068
:1001A0000648804706480047FEE7FEE7FEE7FEE711
:1001B000FEE7FEE7FEE7FEE7FEE7FEE7F5100008D4
:1001C000890100082DE9F05F0546002092469B4614
:1001D00088460646814640241BE02846414647465D
:1001E000224600F041F853465A46C01A914110D3B6
:1001F00011461846224600F028F82D1A67EB010830
:100200004F4622460120002100F01FF817EB00099D
:100210004E41201EA4F10104DFDC484631462A4647
:100220004346BDE8F09FD2B201E000F8012B491E21
:10023000FBD270470022F6E710B513460A46044683
:100240001946FFF7F0FF204610BD202A04DB203AB4
:1002500000FA02F1002070479140C2F1200320FA19
:1002600003F3194390407047202A04DB203A21FA17
:1002700002F00021704721FA02F3D040C2F12002BF
:100280009140084319467047064C074D06E0E06868
:1002900040F0010394E8070098471034AC42F6D3CD
:1002A000FFF776FF18120008381200082DE9F04118
:1002B000154D4FF400542146284600F014FA66000C
:1002C0003146284600F00FFAA7003946284600F0CC
:1002D0000AFA4FF480584146284600F004FA2D20CF
:1002E00000F0A2F82146284600F0FDF931462846E4
:1002F00000F0F9F93946284600F0F5F9414628465C
:10030000BDE8F04100F0EFB9000C0240FEE700004C
:100310002DE9F047284C054600262078B1460127F4
:1003200080B14FF0020A4FF00408012811D00228D2
:1003300028D0032832D084F8008000F067FE3046D1
:10034000BDE8F087022DFAD127701CA000F008FF4D
:100350001EE01EA000F004FF032D02D0022D0AD0E3
:1003600001E084F80080606838B11CA000F0F8FE5D
:10037000012D1BD0E3E76760F7E7012DDFD10320F4
:100380002070DCE71BA000F0EBFE022DD7D1277018
:1003900000F058FE6426C4F80490D0E719A000F0DD
:1003A000DFFE1CA000F0DCFE022DC8D184F800A006
:1003B00000F0FEFD3226C2E7040000205374617491
:1003C000653A20524553544152540A0053746174A3
:1003D000653A205448524F5547480A00576169749E
:1003E00020666F7220627574746F6E207072657310
:1003F000730A000053746174653A20424C4F434BBA
:1004000045440A0053746174653A20574149540ABF
:1004100000000000776169742061206D696E757459
:10042000650A000070470000034A116813685B1AF0
:100430008342FBD3704700000C00002010B54FF43E
:10044000004000F02FF802490120086010BD0000B4
:100450000000002010B5042000F024F8014901201C
:10046000086010BD0000002010B50A490024204695
:100470000A680AB10224086007490A680AB101241F
:1004800008600821054800F027F9012800D103245D
:10049000204610BD14000020000000200010024083
:1004A0007047000010B504490A68024202D0086093
:1004B000FFF7F6FF10BD0000143C01402DE9F84F96
:1004C0000022DFF80082DFF80092DFF800A24FF090
:1004D000030E0F27012303FA02F50B682B40AB42F2
:1004E0007DD1D1F804C0BCF1020F02D0BCF1120FD3
:1004F00012D14FEAD20C00EB8C0CDCF820605407D0
:10050000E40E07FA04FB26EA0B06D1F810B00BFA4A
:1005100004F43443CCF8204006684FEA420C0EFA4B
:100520000CF4A64391F804B00BF0030B0BFA0CFB90
:100530004BEA060606604E68012E05D0022E03D057
:10054000112E01D0122E11D18668A643D1F80CB01D
:100550000BFA0CFB4BEA06068660466826EA0505A0
:100560000E79C6F30016964035434560C56825EA06
:1005700004048D6805FA0CFC4CEA040CC0F80CC0AD
:10058000D1F804C01CF0805F7DD0D8F800C04CF4D6
:10059000804CC8F800C0D8F800C00CF4804CCDF8EE
:1005A00000C022F0030C0CF1804404F59834D4F818
:1005B00008C895072D0F07FA05F62CEA0606A0F1E4
:1005C000804CBCF5003C64D0A0F1804CBCF5013CF3
:1005D00062D0A0F1804CBCF5023C60D000E052E05B
:1005E000A0F1804CBCF5033C5CD0A0F1804CBCF584
:1005F000043C5AD0A0F1804CBCF5053C58D0A0F189
:10060000804CBCF5063C56D0A0F1804CBCF5073CB4
:1006100054D04FF0080C0CFA05FC4CEA060CC4F858
:1006200008C8D9F800C02CEA030C4C6814F4803FC9
:1006300001D04CEA030CC9F800C0254CD4F800C026
:100640002CEA030C4D6815F4003F01D04CEA030C72
:10065000C4F800C0DAF800C02CEA030C4C6814F4AB
:10066000801F01D04CEA030CCAF800C0194CD4F822
:1006700000C02CEA030C4D6815F4001F01D04CEAB1
:10068000030CC4F800C0521C102AFFF423AFBDE8CD
:10069000F88F4FF0000CBEE74FF0010CBBE74FF0B6
:1006A000020CB8E74FF0030CB5E74FF0040CB2E7CB
:1006B0004FF0050CAFE74FF0060CACE74FF0070C1E
:1006C000A9E7000044380240003C0140083C0140DA
:1006D000043C01400C3C01400069084201D001206B
:1006E000704700207047426931EA020201D08161FF
:1006F0007047090481617047002A01D08161704709
:10070000090481617047000001488068704700005B
:10071000200000200A486422C168491C91FBF2F3C2
:1007200002FB1311C160002908D10168491C016056
:1007300001684268914201D1012181607047000047
:100740000C00002010B50B48016841F400710160F5
:10075000016841F480610160016841F480710160C9
:10076000032000F085F8002000F006F800F026F8DD
:10077000002010BD003C024070B504460D4D4FF402
:100780007A712878B1FBF0F00B490968B1FBF0F001
:1007900000F08EFB08B1012070BD102C07D20022A2
:1007A0002146501E00F030F86C60002070BD012022
:1007B00070BD0000200000201C0000200A4808B581
:1007C000016841F480410160006800F480400090BD
:1007D0000548001F016841F080510160006800F089
:1007E0008050009008BD00004438024000280ADB19
:1007F00000F01F01012202FA01F14009800000F11E
:10080000E020C0F80011704710B4184B1B68C3F308
:100810000223C3F1070CBCF1040F01D94FF0040C03
:100820001C1D072C01D2002300E0DB1E012404FA6A
:100830000CFCACF1010C0CEA0101994004FA03F341
:100840005B1E1A401143002806DB00F1E02009017D
:1008500080F8001410BC704700F00F0000F1E02099
:10086000090180F8141D10BC704700000CED00E079
:1008700000F00700064A11684FF6FF03194041EAED
:10088000002040F0FD7040F0806010607047000074
:100890000CED00E02DE9F04704460D46002C13D086
:1008A000DFF85091D9F80000EFB200F00F00A84235
:1008B0000DD289F80070D9F8000000F00F00A842AE
:1008C00005D00120BDE8F0870120BDE8F087206851
:1008D000494E10F0020F14D010F0040F03D030680E
:1008E00040F4E0503060207810F0080F03D03068FA
:1008F00040F4604030603068A16820F0F0000843A8
:100900003060207810F0010F3ED060683B4901282C
:1009100008D002280DD003280BD0096811F0020F6F
:1009200028D00AE0096811F4003F06D10120BDE893
:10093000F087096811F0007F19D0316821F00301B8
:1009400008433060FFF7E0FE80463068616800F0E1
:100950000C00B0EB810F17D041F2883AFFF7D4FEBC
:10096000A0EB0800504508D90320BDE8F08701201E
:10097000BDE8F0870120BDE8F0873068616800F0CD
:100980000C00B0EB810FE9D1D9F8000000F00F00A6
:10099000A8420AD989F80070D9F8000000F00F00C9
:1009A000A84202D00120BDE8F087207810F0040FA3
:1009B00005D03068E16820F4E050084330602078CA
:1009C00010F0080F06D03068216920F4604040EA3A
:1009D000C100306000F018F83168094AC1F3031112
:1009E000515CC840074908600020FFF7C5FE0020A1
:1009F000BDE8F087003C0240083802400038024061
:100A0000081200081C00002010B51748006810F0FC
:100A10000C01164816D0164B042912D0082911D102
:100A2000144C216801F03F02216811F4800F0AD0B4
:100A30002068C0F38810A0FB03010023FFF7C2FB6E
:100A400009E0184610BD21680023C1F38811A1FBFD
:100A50000001FFF7B7FB2168C1F30141491C4900C0
:100A6000B0FBF1F010BD0000083802400024F40093
:100A700040787D01043802402DE9F84F0446002CEF
:100A800010D02078FA4D10F0010F64D0F9480168B9
:100A900001F00C0104290DD0006800F00C000828BA
:100AA00003D011E00120BDE8F88FF348006810F48E
:100AB000800F09D0286810F4003F4CD060680028EF
:100AC00049D10120BDE8F88F6068B0F5803F14D0AF
:100AD000B0F5A02F16D0286820F480302860286850
:100AE00020F480202860606810B3FFF70DFE0646F2
:100AF000286810F4003F0ED02DE0286840F48030C4
:100B00002860F0E7286840F480202860286840F4D6
:100B100080302860E7E7FFF7F7FD801B642802D9E3
:100B20000320BDE8F88F286810F4003FF3D012E0EE
:100B3000FFF7EAFD0646286810F4003F0BD0FFF7E8
:100B4000E3FD801B642802D90320BDE8F88F2868E4
:100B500010F4003FF3D12078C84F10F0020F4FF08F
:100B6000000856D0C348016811F00C0F15D000687A
:100B700000F00C00082804D1BF48006810F4800F72
:100B80000BD0E06878B301203860FFF7BDFD064662
:100B9000286810F0020F12D01DE0286810F0020F34
:100BA00005D0E068012802D00120BDE8F88F286850
:100BB000216920F0F80040EAC100286029E0FFF731
:100BC000A3FD801B022802D90320BDE8F88F286806
:100BD00010F0020FF3D02868216920F0F80040EAF5
:100BE000C100286015E0FFE7C7F80080FFF78CFD23
:100BF0000646286810F0020F0BD0FFF785FD801B1A
:100C0000022802D90320BDE8F88F286810F0020FEF
:100C1000F3D1207810F0080F33D09948DFF86492B0
:100C20006169B9B101210160FFF76EFD0646D9F88F
:100C3000000010F0020F24D1FFF766FD801B022890
:100C400002D90320BDE8F88FD9F8000010F0020F98
:100C5000F2D016E0C0F80080FFF756FD0646D9F83E
:100C6000000010F0020F0CD0FFF74EFD801B022891
:100C700002D90320BDE8F88FD9F8000010F0020F68
:100C8000F2D1207810F0040F73D04FF00009DFF894
:100C9000F8A1DAF8000010F0805F0CD1DAF800005B
:100CA00040F08050CAF80000DAF8000000F08050F0
:100CB00000904FF00109DFF8D4B1DBF8000010F428
:100CC000807F1AD1DBF8000040F48070CBF8000080
:100CD000FFF71AFD0646DBF8000010F4807F0CD108
:100CE000FFF712FD801B022802D90320BDE8F88F10
:100CF000DBF8000010F4807FF2D0A068DFF890B13C
:100D0000012818D005281DD0DBF8000020F00100D4
:100D1000CBF80000DBF8000020F00400CBF8000066
:100D2000A06838B3FFF7F0FC0646DBF8000010F0CF
:100D3000020F14D03CE0DBF8000040F00100CBF8DB
:100D40000000EDE7DBF8000040F00400CBF8000005
:100D5000DBF8000040F00100CBF80000E0E7FFF70F
:100D6000D3FC811B41F28830814204D90320BDE8C5
:100D7000F88F26E005E0DBF8000010F0020FEED05F
:100D800016E0FFF7C1FC0646DBF8000010F0020F8A
:100D90000ED0FFF7B9FC811B41F28830814202D9A5
:100DA0000320BDE8F88FDBF8000010F0020FF0D14F
:100DB000B9F1010F05D1DAF8000020F08050CAF82F
:100DC0000000A069E8B32B49096801F00C0108296B
:100DD0006BD0022810D0C7F86080FFF795FC04465E
:100DE000286810F0007F5ED0FFF78EFC001B022801
:100DF00055D90320BDE8F88FC7F86080FFF784FC61
:100E00000646286810F0007F0BD0FFF77DFC801BA2
:100E1000022802D90320BDE8F88F286810F0007F6F
:100E2000F3D1216AE069A26A0843616A4FF0FF3397
:100E3000890103EB520241EA0241084394F82C1065
:100E400000E030E040EA01610B48016001203866B3
:100E5000FFF75AFC0446286810F0007F23D1FFF703
:100E600053FC001B022815D90320BDE8F88F1CE0B5
:100E7000003802400838024004380240000047426F
:100E8000800E4742743802404038024000700040F3
:100E900070380240286810F0007FE0D003E0286836
:100EA00010F0007FA0D10020DFE70120DDE7000087
:100EB000401EB0F1807F01D3012070474FF0E02148
:100EC0004861044AF0201070002088610720086102
:100ED0000020704723ED00E0FEE7000070B586B00B
:100EE00014216846FFF7A6F92A480024016841F05A
:100EF00010010160016801F010010591016841F0E5
:100F000002010160016801F002010591016841F0F0
:100F100008010160016801F008010591016841F0D4
:100F20000101016000681C4E00F001004FF47045A3
:100F30000590002229463046FFF7DEFB0820CDE968
:100F40000004694615480294FFF7B8FAF0130090C0
:100F50001348CDE9010469461248FFF7AFFA0120B2
:100F60000095CDE90104694630460394FFF7A6FADF
:100F7000002211460820FFF747FC0820FFF736FC47
:100F8000002211462820FFF73FFC2820FFF72EFC07
:100F900006B070BD30380240000C02400010024024
:100FA0000000211000040240FEE7704770477047C0
:100FB00070B5154C00224FF400412046FFF79CFB12
:100FC0000320FFF731FA0122950329462046FFF757
:100FD00093FB0F20FFF728FA002229462046FFF74F
:100FE0008BFB0320FFF720FA012251032046FFF775
:100FF00083FB0F20FFF718FA2046BDE8704001225E
:101000001103FFF779BB0000000C024010B50C4C37
:1010100000224FF400512046FFF76EFB00224FF4F0
:1010200000412046FFF768FB0022A1142046FFF78D
:1010300063FB2046BDE810404FF48041FFF753BBEF
:10104000000C024010B50D4C00224FF48051204698
:10105000FFF752FB1420FFF7E7F900224FF400518D
:101060002046FFF749FB0320FFF7DEF92046012267
:10107000BDE81040D103FFF73FBB0000000C024069
:10108000FFF748BB10B592B030216846FFF7D2F8A1
:1010900014210CA8FFF7CEF814480024016841F091
:1010A00080510160006800F0805011901048016884
:1010B00041F4804101600068069400F48040119082
:1010C0000220009001200390102004906846FFF752
:1010D000D3FC0F20CDE90C040E940F9400210CA832
:1010E0001094FFF7D7FB12B010BD0000403802404B
:1010F000007000401048016841F4700101600F4821
:10110000016841F0010101600C4A002108321160C0
:1011100002680B4B1A400260031D0A4A1A600268FB
:1011200022F48022026005480C3001600249580612
:10113000803908607047000088ED00E00038024008
:10114000FFFFF6FE10300024002803D002490A6891
:1011500010444860704700000C000020FEE70000CB
:10116000014A024900F013B8B11100082C00002018
:1011700002E008C8121F08C1002AFAD17047704760
:10118000002001E001C1121F002AFBD170472DE9A8
:10119000F04116460F460446002503E03946B047A5
:1011A000641C6D1C20780028F8D12846BDE8F08129
:1011B00008490968C90706D0064980390968CA077D
:1011C0004FF0604101D1704700BF0A68002AFBD090
:1011D00008707047800E00E0FFF7B4FAFFF752FF87
:1011E000FFF77CFEFFF762F806493220C1F80000E5
:1011F000FFF73AF9FFF78CF8FFF7A6FF0120FFF79A
:1012000013F9F5E7100000200000000000000000C6
:101210000102030406070809381200080000002034
:101220003000000070110008681200083000002033
:101230000004000080110008000000000000000011
:10124000000000000000000000000000000000009E
:10125000000000000024F400010000001000000065
:08126000000000000000000086
:040000050800018965
:00000001FF
