:020000040800F2
:1000000028200020A1010008831E0008051D00080B
:10001000811E00083703000859380008000000005E
:1000200000000000000000000000000001200008A7
:10003000E103000800000000FF1F00080D20000879
:10004000BB010008BB010008BB010008BB010008A0
:10005000BB010008BB010008BB010008BB01000890
:10006000E5030008BB010008BB010008BB01000854
:10007000BB010008BB010008BB010008BB01000870
:10008000BB010008BB010008BB01000845030008D4
:1000900039030008BB010008BB010008BB010008D0
:1000A000BB010008BB010008BB010008BB01000840
:1000B000BB010008BB010008BB010008BB01000830
:1000C000BB010008BB010008BB010008BB01000820
:1000D000BB010008BB010008BB010008BB01000810
:1000E000BB010008BB010008BB010008BB01000800
:1000F000BB010008BB010008BB010008BB010008F0
:10010000BB010008BB010008BB010008BB010008DF
:10011000BB010008BB010008BB010008BB010008CF
:10012000BB010008BB010008BB010008BB010008BF
:10013000BB010008BB010008BB010008BB010008AF
:10014000BB010008BB010008BB010008851E0008B8
:10015000BB010008BB010008BB010008BB0100088F
:10016000BB010008BB010008BB010008BB0100087F
:10017000BB010008BB010008BB0100080000000033
:10018000BB010008BB010008DFF810D000F096F8B2
:1001900000480047913B0008AFF300802820002072
:1001A0000648804706480047FEE7FEE7FEE7FEE711
:1001B000FEE7FEE7FEE7FEE7FEE7FEE7A120000818
:1001C000890100082DE9F05F0546002092469B4614
:1001D00088460646814640241BE02846414647465D
:1001E000224600F05AF853465A46C01A914110D39D
:1001F00011461846224600F041F82D1A67EB010817
:100200004F4622460120002100F038F817EB000984
:100210004E41201EA4F10104DFDC484631462A4647
:100220004346BDE8F09F40EA01039B0703D009E085
:1002300008C9121F08C0042AFAD203E011F8013BD2
:1002400000F8013B521EF9D27047D2B201E000F82B
:10025000012B491EFBD270470022F6E710B513466A
:100260000A4604461946FFF7F0FF204610BD421C1F
:1002700010F8011B0029FBD1801A7047202A04DBEB
:10028000203A00FA02F1002070479140C2F12003A9
:1002900020FA03F3194390407047202A04DB203AE8
:1002A00021FA02F00021704721FA02F3D040C2F196
:1002B000200291400843194670470000064C074D44
:1002C00006E0E06840F0010394E807009847103426
:1002D000AC42F6D3FFF75CFF443D0008643D0008E4
:1002E00070B58C1810F8015B15F0070301D110F8F8
:1002F000013B2A1106D110F8012B03E010F8016B25
:1003000001F8016B5B1EF9D12B0705D40023521EA7
:100310000DD401F8013BFAE710F8013BCB1A921C0F
:1003200003E013F8015B01F8015B521EF9D5A1420D
:10033000D8D3002070BDFEE7014800F0DAB9000014
:10034000AC010020014800F0D4B90000AC0100204D
:10035000002070470020704710B50022044905486E
:1003600001F0B5FF0449034801F0A8FF002010BDCB
:10037000000F0020300200200007002010B50146C9
:10038000084801F09BFF074801F07DFF054806493A
:10039000064AD0F8BC02D0F80C01086000211154C4
:1003A000084610BD30020020040000200007002095
:1003B00000207047094A10B5D2F8BC22D2F81421A7
:1003C0000AB1012010BD0A460146044801F07FFF32
:1003D000BDE81040014801F0E4BF000030020020F9
:1003E0007047000010B5042000F0B4FB0149012063
:1003F000086010BD0800002072B6FEE790F82020CB
:10040000012A07D0022A05D0416A41F480214162C5
:1004100001207047006842690A434261002070472A
:10042000F0B590F820500468A468012D05D0022D85
:1004300003D0416A41F480215DE014F0406F01D1A6
:10044000E50055D5C4F30164022C03D9416A41F497
:10045000000150E00125A5401D608D684FF4C07378
:100460009DB1CE6835434E6845EAC605066803EB84
:100470000417F5514FF4C275076805EB04150E69B2
:100480007E51097D012905D009E00E88CD6845EA35
:100490004655EBE701684E5946F480764E51117986
:1004A000D579567941EA056195792D0445EA062505
:1004B00029434FF4C676056806EB0416A951117856
:1004C000D57841EA0561957852782D0445EA0222F3
:1004D00011434FF4C475026805EB041551510068CF
:1004E00003EB0411425842F0010242500020F0BDDB
:1004F000416A41F4001141620120F0BD10B590F84D
:100500002020012A07D0022A05D0416A41F4802127
:100510004162012010BD3B48D0F8002242F00102A8
:10052000C0F80022D0F8002222F47C52C0F8002249
:10053000D0F800224B6A42EA0322C0F800220A7D6A
:1005400002F01F0301229A40D0F81C329343C0F8F6
:100550001C32CB69B3B9D0F80C329343C0F80C32DB
:100560008C894B6864F31F434C6900EBC404C4F8E6
:1005700040320C890B6864F31F434C6900EBC404E0
:10058000C4F84432CB69012B16D1D0F80C32134396
:10059000C0F80C320C884B6864F31F434C6900EBC5
:1005A000C404C4F840320C89CB6864F31F434C691F
:1005B00000EBC404C4F844328B69002BD0F8043239
:1005C0000ED01343C0F804320B69002BD0F814325C
:1005D00008D01343C0F81432096A012904D008E096
:1005E0009343EFE79343F5E7D0F81C121143C0F8AB
:1005F0001C12D0F8001221F00101C0F800120020F6
:1006000010BD000000640040704730B590F82040F5
:10061000012C05D0022C03D0416A41F480215DE019
:100620000468002955D02469A40754D04FF4D87425
:10063000056804EB01142D5915F004059560056853
:100640002D594ED0ED08556005682C5904F0020470
:10065000D4604FF4DA74056804EB01142D5905F0E9
:100660000F05156105682D59C5F3072595610568C6
:100670002C59240C54614FF4DC72046802EB011213
:10068000A4581C700468A458240A5C700468A45818
:10069000240C9C700468A258120EDA704FF4DE72BB
:1006A000046802EB0112A4581C710468A458240ABF
:1006B0005C710468A458240C9C710468A258120E42
:1006C000DA71006881B1016941F020010161002007
:1006D00030BDE468A8E7416A41F40011416201209D
:1006E00030BD6D0D1560AFE7C16841F02001C160FC
:1006F000EDE72DE9F05F0546006800244669D0F873
:1007000004908768D0F80CB0D0F810A0D0F818800A
:10071000F10748D0F90714D001218160B80703D54B
:10072000284600F0FCF90CE0780702D54FF400648D
:1007300007E0380702D54FF4805402E0284600F065
:10074000EDF9F80516D529684FF480708860B80572
:1007500003D5284600F0E5F90CE0780502D544F40D
:10076000005407E0380502D544F4804402E02846EE
:1007700000F0D6F9F80316D529684FF48030886068
:10078000B80303D5284600F0CEF90CE0780302D573
:1007900044F4004407E0380302D544F4803402E016
:1007A000284600F0BFF9300707D55FEACB6004D5D3
:1007B0002968102044F40074C86070074FF00807DF
:1007C00007D55FEA0B7004D52868C760284600F09B
:1007D00061F9B00706D52868C068800702D02846AE
:1007E00000F05AF9700607D55FEACA6004D5296897
:1007F000102044F480640861B00607D55FEA0A70EF
:1008000004D528680761284600F058F9F00606D597
:1008100028680069800702D0284600F050F9B0032C
:1008200008D55FEAC96005D52968102048602846C8
:1008300000F046F9F00307D55FEA097004D528688F
:100840004760284600F070F9300446D55FEA4970E9
:1008500040D5F00504D55FEAC87001D044F001042A
:10086000B00504D55FEA887001D544F00204700534
:1008700004D55FEA487001D544F00404300529D559
:1008800018F0700F26D008F07000402815D006DC54
:10089000102809D020280AD0302816D10AE0502884
:1008A0000ED0602811D10EE044F008040DE044F0B1
:1008B00010040AE044F0200407E044F0400404E09F
:1008C00044F0800401E044F480742868816921F0D8
:1008D00070018161296804204860002C05D0686A95
:1008E000204368622846FFF78FFEBDE8F09F70B591
:1008F000040003D094F8200010B104E0012070BD82
:10090000204600F081F82068016821F002010160B2
:1009100000F028FA0546052604E000F023FA401B03
:100920000A2811D8206840688007F6D4206801683A
:1009300041F00101016000F015FA05460BE000F0FE
:1009400011FA401B0A2806D9606A40F40030606240
:1009500084F82060D2E720684068C007EFD0207E8E
:100960000128206801683DD021F080010160607E8F
:1009700001282068016838D021F040010160A07E84
:1009800001282068016833D021F020010160E07E59
:100990000128206801682ED041F010010160207FFD
:1009A00001282068016829D021F008010160607FDA
:1009B00001282068016824D021F004010160D4E9F5
:1009C00002010843D4E90412114308436168491E37
:1009D00008432168C86100206062012084F820007B
:1009E000002070BD41F08001C0E741F04001C5E743
:1009F00041F02001CAE721F01001CFE741F00801E2
:100A0000D4E741F00401D9E710B586B004461421BB
:100A10006846FFF721FC1C492068884231D11B48F9
:100A20000021026842F000720260006800F000706D
:100A3000059016481038026842F002020260006811
:100A400000F0020005904FF4407000900220CDE9C4
:100A50000101032003900920049069460C4800F02E
:100A600085F800221146132000F0EAF9132000F067
:100A7000D9F900221146142000F0E2F9142000F008
:100A8000D1F906B010BD00000064004040380240BB
:100A90000004024070470000074A10B5054B0021D2
:100AA000A2F15000FFF7B1FD034802491439006973
:100AB000C86010BD14000020FC0100207047704782
:100AC0007047000070B5044690F82000012804D05B
:100AD000606A40F40020606218E0022084F8200080
:100AE0002068016821F00101016000F03BF9054632
:100AF0000EE000BF00F036F9401B0A2808D9606AF2
:100B000040F400306062052084F82000012070BDB0
:100B100020684068C007EDD1606270BD70477047C3
:100B200070477047704770477047000070B50446C3
:100B300000F018F90546601C02D00448007804440F
:100B400000F010F9401BA042FAD370BD88000020CD
:100B500070470000044910B50A68024202D00860DC
:100B6000FFF7F6FF10BD0000143C01402DE9F84FDF
:100B7000DFF8B8A1002201250AF1040B03264FF08B
:100B80000F090BF1040E00BF0B6805FA02F42340B5
:100B9000A3426FD10F7907F00307012F01D0022F75
:100BA00016D187684FEA420806FA08FC27EA0C07C4
:100BB000D1F80CC00CFA08FC4CEA070CC0F808C0CD
:100BC0004768A7430C79C4F3001494403C43446045
:100BD0000C79E443A4070AD0C4684FEA420C06FA31
:100BE0000CF7BC438F6807FA0CF72743C7600C79F2
:100BF00004F00304022C12D1D40800EB840CDCF8BE
:100C000020405707FF0E09FA07F824EA0804D1F834
:100C1000108008FA07F848EA0408CCF82080046835
:100C20004FEA420C06FA0CF7BC430F7907F00307B2
:100C300007FA0CF7274307604C68E40070D53C4C7A
:100C4000276847F480472760246822F0030704F4EC
:100C500080440094374C07EB040CDCF808489707F5
:100C60004FEA177809FA08F7BC43334FB84202D16C
:100C7000002724E054E0314FB84201D101271EE0A3
:100C80002F4FB84201D1022719E02E4FB84201D1AF
:100C9000032714E02C4FB84201D104270FE02B4F5B
:100CA000B84201D105270AE0294FB84201D10627F1
:100CB00005E0284FB84201D1072700E0082707FACE
:100CC00008F72743CCF80878DAF800405746D1F8FF
:100CD00004C09C435FEACC3C00D51C433C60DBF87D
:100CE00000405F46D1F804C09C435FEA8C3C00D5CD
:100CF0001C433C60DEF800407746D1F804C09C43BA
:100D00005FEACC2C00D51C433C60084F0C373C6894
:100D1000D1F804C09C435FEA8C2C00D51C433C6096
:100D2000521C102AFFF430AFBDE8F88F003C0140A0
:100D300044380240003001400000024000040240FC
:100D400000080240000C0240001002400014024063
:100D500000180240001C02400AB18161704709047A
:100D6000FBE7000001488068704700008800002011
:100D70000248816802781144816070478800002031
:100D80000B4810B5016841F400710160016841F43D
:100D900080610160016841F480710160032000F00E
:100DA0006FF8002000F006F800F024F8002010BDD5
:100DB000003C024070B50D4D04464FF47A7128781E
:100DC000B1FBF0F00A490968B1FBF0F000F086FFD2
:100DD00048B9102C07D200222146501E00F030F8EE
:100DE00000206C6070BD012070BD000088000020F4
:100DF000940000200A4808B5016841F48041016070
:100E0000006800F4804000900548001F016841F030
:100E100080510160006800F08050009008BD000023
:100E200044380240002809DB00F01F0201219140F4
:100E30004009800000F1E020C0F800117047000078
:100E4000F0B40E4B1B680C46C3F30223C3F1070535
:100E5000042D00D90425191D072901D2002300E023
:100E6000DB1E012606FA05F1491E214099409E40ED
:100E7000761E16403143F0BC02F004BD0CED00E0DC
:100E8000064900F0070208684FF6FF03184040EAE1
:100E90000220034A10430860704700000CED00E098
:100EA0000000FA0570470068416200207047F0B505
:100EB0000368586A39B19C6A4FF4827600EB144497
:100EC00000204D1E0AE040EA024098620FE006EB67
:100ED0008007DF59401C04EB1744C0B2A842F6D388
:100EE00044EA02404FF4807202EB81015850002026
:100EF000F0BDD0F8040401F08BBCC1EBC10200EBE3
:100F00008202D0F80404926C01F0F8BBC1EBC1027C
:100F100000EB8202D0F80404D2F8082201F042BCAF
:100F2000D0F8040401F076BC70B504460B0601F05D
:100F30000F00C0EBC00104EB81014FF001024FF044
:100F4000000503D581F83D203C3103E081F8FD51D7
:100F500001F5FE71087094F8BC03012808D084F8EC
:100F6000BC23206802F010F884F8BC53002070BD48
:100F7000022070BD70B5044601F00F006268904217
:100F800001D9012070BD0B0601F00F01C1EBC101B9
:100F900004EB81014FF001024FF0000503D581F809
:100FA0003D203C3103E081F8FD5101F5FE718D706B
:100FB000087094F8BC03012808D084F8BC2320688A
:100FC00002F0DCF984F8BC53002070BD022070BD33
:100FD00001F00F01C1EBC10100EB8100D0F8140258
:100FE00070472DE9F04104460F0601F00F00C0EBF9
:100FF000C00104EB81014FF001064FF0000503D55D
:1010000081F83D603C3103E081F8FD5101F5FE714E
:1010100008708A60CB704A7802B1C880022B00D178
:101020000D7194F8BC03012809D084F8BC632068D2
:1010300001F006FF284684F8BC53BDE8F081022089
:10104000FBE770B50C4601F00F05C5EBC50100EBE1
:101050008101C1F81032C1F808220023C1F814320E
:1010600081F8FD3181F8FC51036901F5FE71012B16
:1010700000D10A612207027C006803D002F0D6F991
:10108000002070BD02F0C2F8FAE770B504460D46C4
:1010900001F00F006168884201D9012070BD290666
:1010A0004FF000064FF0010207D5C0EBC00104EB82
:1010B000810181F83D203C3107E0C5EBC50104EB1F
:1010C000810181F8FD6101F5FE718A70087094F864
:1010D000BC03012807D084F8BC23206802F07AF909
:1010E000280702D007E0022070BD217C04F5717250
:1010F000206802F017F984F8BC63002070BD70B559
:101100000C4601F00F05C5EBC50100EB81010B6535
:101110008A6400234B65012381F83D3001F83C5F70
:101120000369012B00D10A612207027C006803D009
:1011300002F07CF9002070BD02F068F8FAE70000C8
:101140002DE9FC5F05680446284602F098FA00285D
:101150007ED1206802F0BFFA002879D0206802F022
:10116000BAFA800704D52168486900F00200486196
:10117000206802F0B0FAC10604F57170009034D511
:101180002068816921F0100181612F6A07F00F004A
:10119000C0EBC00004EB8006C7F3434006F5FE76C3
:1011A000022802D0062811D01AE047F6F070074254
:1011B00016D0C7F30A1217462846F16802F08FFAD4
:1011C000F0683844F060B069384408E008222846E6
:1011D000009902F084FAB069C7F30A110844B061BB
:1011E0002068816941F010018161206802F073FA82
:1011F00000034FF0010A4FF0080B5BD50026206872
:1012000002F048FA0746DFF8689351E0F8074DD03E
:10121000F1B2206802F057FA8046C00707D005EB0C
:101220004611C1F808AB3146204600F031FE5FEAB6
:10123000087022D505EB4611C1F808BB2068016C87
:1012400000EB46100191D0F8082B494507D900E082
:101250008BE1110403D54FF40041C0F8081B204670
:1012600000F076FA0198484507D92069012804D191
:1012700020680121009A02F055F85FEAC86004D5A1
:1012800005EB46111020C1F8080B5FEA886004D511
:1012900005EB46112020C1F8080B5FEA884005D510
:1012A00005EB46104FF40051C0F8081B7F08761C70
:1012B000002FABD1206802F00EFA40034FF0000976
:1012C0005CD5206802F0DFF90746002654E0F807F5
:1012D00050D0F1B2206802F0E4F98046C00723D074
:1012E00006F00F020AFA02F0D5F834288243C5F856
:1012F000342805EB4610C0F808A9206901280FD151
:10130000C6EBC60004EB8000D0E9112111448164D2
:1013100036B9206D20B920680121009A02F002F848
:10132000F1B22046FFF7E9FD5FEA087003D505EB4F
:101330004611C1F808B95FEAC86004D505EB46114B
:101340001020C1F808095FEA486004D505EB461192
:101350004020C1F808095FEA887004D505EB461102
:101360000220C1F808095FEA086003D5314620462B
:1013700000F0F4FD7F08761C002FA8D1206802F051
:10138000AAF9002811DAD5F8040820F00100C5F800
:10139000040894F8F403012829D0204600F0BCF991
:1013A0002068416901F000414161206802F093F931
:1013B00000050BD5D5F80808C00702D0204600F07C
:1013C000EFF92068416901F400614161206802F091
:1013D00082F9C00468D5D5F8040820F00100C5F8EA
:1013E00004081021206802F02BF9002127E084F87E
:1013F000F49300212046FFF755FDD1E705EB41109E
:101400004FF67F32C0F80829D0F8003923F40013D2
:10141000C0F80039D0F8003943F00063C0F8003953
:10142000C0F8082BD0F8002B22F40012C0F8002BD3
:10143000D0F8002B42F00062C0F8002B491C606815
:101440008842DBD8D5F81C0840F00110C5F81C080C
:10145000206B60B1D5F8840840F00B00C5F8840813
:10146000D5F8440840F00B00C5F844080CE0D5F866
:10147000141842F22B000143C5F81418D5F81008CF
:1014800040F00B00C5F81008D5F8000820F4FE6005
:10149000C5F80008217C2068009A01F043FF20680D
:1014A000416901F480514161206802F014F980041F
:1014B00015D5206801F004FD206802F0D3F8E06043
:1014C00000F020FA0146227B206802F03FF9204616
:1014D00000F00CF92068416901F400514161206875
:1014E00002F0F9F8000707D5204600F019F9206846
:1014F000416901F008014161206802F0ECF8C00286
:1015000008D50021204600F035F82068416901F433
:1015100080114161206802F0DEF8800208D50021C8
:10152000204600F02BF82068416901F40011416168
:10153000206802F0D0F8400007D52046FFF7D9FC1C
:101540002068416901F080414161206802F0C3F8E0
:1015500040070AD520684568680702D52046FFF78E
:10156000DFFC2068416829434160BDE8FC9F000022
:101570000A30544FD0F8040401F09CB9D0F80404A8
:1015800001F0A8B92DE9F0418AB0040005D094F823
:10159000BD032668002520B108E001200AB0BDE89F
:1015A000F08184F8BC53204600F05EF8032084F8F4
:1015B000BD03F06BC00500D42561206801F020FE5A
:1015C00004F11001282288466846FEF72CFE94E8B4
:1015D0000F0001F083FC0226C8BB0021206802F046
:1015E0008CF8002001270EE0C0EBC00104EB810164
:1015F00081F83D7001F83C0FC880CD708D60CD60E2
:10160000401CC0B24D6161688142EDD8002011E0FC
:10161000C0EBC00104EB810181F8FD5181F8FC01B0
:1016200081F8FF51C1F80452C1F80852401CC0B201
:10163000C1F8105261688142EAD8282241466846C2
:10164000FEF7F1FD94E80F0001F020FD10B184F8E1
:10165000BD63A2E784F8385084F8BD73206801F0B8
:1016600007FD00209AE7000010B586B0044614215B
:101670006846FEF7F1FD2068B0F1A04F2FD1194860
:101680000021026842F001020260006800F00100DF
:1016900005904FF4C05000900220CDE901010320D5
:1016A00003900A20049069460F48FFF75FFA0D483F
:1016B000001D016841F0800101600A481430016892
:1016C00041F4804101600068002200F480400590F0
:1016D00011464320FFF7B4FB4320FFF7A3FB06B0FE
:1016E00010BD0000303802400000024070B50446D2
:1016F000C068012570B1022801D0FEF77DFE2946A1
:10170000D4F8040401F052F9D4F80404BDE87040A0
:1017100001F005B90025F2E7D0F8040401F02CB976
:10172000D0F8040401F032B910B5044690F8BC03B7
:1017300001280BD0012084F8BC0384F838102068FD
:1017400001F0F2FF002084F8BC0310BD022010BDA0
:10175000D0F8042400F57171104601F033B910B5CA
:101760000446006894F8BC13012906D0012184F8CE
:10177000BC13A16A012902D008E0022010BDA169B2
:10178000012903D0816B41F480318163206801F02D
:1017900041FF206801F05EFC002084F8BC0310BD0E
:1017A00010B50446D0F8040401F04EF92068D0F8D2
:1017B000001E41F00101C0F8001E206A002804D07C
:1017C0000248016841F00601016010BD10ED00E023
:1017D0002DE9F0470E46050065D0DFF81481D8F8F2
:1017E0000000F7B200F00700B04207D288F800709E
:1017F000D8F8000000F00700B04254D128683D4CF2
:10180000810712D5400703D5206840F4E0502060DE
:101810002878000703D5206840F4604020602068E5
:10182000A96820F0F000084320602878C0072DD078
:10183000304968680839012812D0022813D00328DB
:1018400011D00968890700292DDA216821F00301E8
:1018500001432160FFF786FA814641F2883A0EE0A3
:1018600009688903EFE709688901ECE7FFF77AFA6D
:10187000A0EB0901514502D90320BDE8F08720689B
:10188000696800F00C00B0EB810FEFD1D8F80010C0
:10189000404601F00701B14207D90770006800F027
:1018A0000700B04201D00120E7E72878400705D5BE
:1018B0002068E96820F4E050084320602878000799
:1018C00006D52068296920F4604040EAC100206004
:1018D00000F01EF82168084AC1F30311515CC840AA
:1018E0000649086006480068FFF764FA0020C4E76C
:1018F000003C024008380240343D000894000020BB
:101900008C0000200148006870470000940000200F
:10191000154810B5006810F00C02144813D041109F
:10192000042A0FD0082A0ED10F4C241F22682368E6
:1019300002F03F025B0207D52068C0F38810A0FBCD
:10194000010106E0084610BD2168C1F38811A1FB22
:1019500000010023FEF736FC2168C1F30141491C58
:101960004900B0FBF1F010BD083802400024F4003B
:101970002DE9F84F04006ED02078DFF84C93C007B3
:10198000A9F104054AD009F104000168C1F38101FD
:10199000012908D00068C0F3810002280AD1D9F8D3
:1019A0000000400206D52868800337D5606800280B
:1019B000E1D033E06068B0F5803F10D0B0F5A02FE3
:1019C000286810D020F480302860286820F4802017
:1019D00028606068A8B1FFF7C5F906460DE02868E1
:1019E00040F48030F4E740F480202860F7E700BF3F
:1019F000FFF7B8F9801B642873D828688003F7D5EF
:101A00000CE0FFF7AFF9064605E000BFFFF7AAF9C3
:101A1000801B6428F0D828688003F7D42078DFF88A
:101A2000AC8280074FF0000A3ED5A748001D016830
:101A300011F00C0F08D00068C0F3810002280BD110
:101A4000D9F80000400207D42868800716D5E0685E
:101A5000012800D112E033E1E068B8B10120C8F8F4
:101A60000000FFF77FF9064605E000BFFFF77AF9AF
:101A7000801B0228C0D828688007F7D5286821690C
:101A800020F0F80040EAC10028600DE0C8F800A08E
:101A9000FFF768F9064604E0FFF764F9801B0228A7
:101AA0001FD828688007F7D42078000722D5864FF2
:101AB00087486169703771B101210160FFF752F900
:101AC000064604E0FFF74EF9801B022809D8386863
:101AD0008007F7D50EE0C0F800A0FFF743F90646EF
:101AE00005E082E0FFF73EF9801B02287DD83868C8
:101AF0008007F7D42078400768D5DFF8CCB10027FD
:101B00000BF13C0BDBF80000C0000BD4DBF800103D
:101B100041F08051CBF80010DBF80000012700F005
:101B2000805000906B4E3068C00510D4306840F48F
:101B300080703060FFF716F9009005E0FFF712F9AA
:101B40000099401A022850D83068C005F6D55E4E7C
:101B5000A0686C3601280FD00528306810D020F01E
:101B600001003060306820F004003060A068B8B137
:101B7000FFF7F8F800900FE0306840F00100F4E75C
:101B800040F004003060F7E7FFF7ECF80099411AE5
:101B900041F28830814266D830688007F4D50EE083
:101BA000FFF7E0F8009007E0FFF7DCF80099411A32
:101BB00041F28830814256D830688007F4D42FB182
:101BC000DBF8001021F08051CBF80010A069C8B3F9
:101BD0003D49091D0968C1F3810102294AD0022843
:101BE000504607D0C8F8600000E03CE0FFF7BAF8C4
:101BF00004463BE04746C8F86000FFF7B3F80646E6
:101C000005E000BFFFF7AEF8801B02282BD828683C
:101C10008001F7D4D4E907010843A16A2E4A490894
:101C200002EB0141626A41EA8211084394F82C10E8
:101C300040EA0161C9F8001001203866FFF792F808
:101C4000044606E03EE000BFFFF78CF8001B0228C8
:101C500009D828688001F7D534E000BFFFF782F883
:101C6000001B022802D90320BDE8F88F28688001F4
:101C7000F4D427E00128F7D0D9F80000E26900F495
:101C8000800191421CD1226A00F03F01914217D19C
:101C900047F6C071626A0140B1EB821F10D1A26A9F
:101CA0004FF0FF3300F4403103EB5202B1EB024F2F
:101CB00006D194F82C1000F07060B0EB016F01D0E9
:101CC0000120D1E70020CFE704380240000047425E
:101CD000800E4742007000400000FFFF10B5401E1C
:101CE000B0F1807F01D3012010BD4FF0E02460618E
:101CF0000F21601701F0C6FD0020A06107202061C0
:101D0000002010BDFEE70000F0B500230A243025B6
:101D100037261F4611E000BFB4EB107F02D905EB58
:101D2000107C01E006EB107C01F813C001EB430CC2
:101D300000015B1C8CF80170DBB29342ECD3F0BD68
:101D40000F4810B50D490160152141608907816078
:101D500000214FF44022C0E903124FF48012426187
:101D6000017641768176C17601774177FEF7BFFD36
:101D7000002801D072B6FEE710BD000000640040EC
:101D8000AC01002070B586B014216846FEF764FAF5
:101D900022480024016841F080010160016801F0DF
:101DA00080010591016841F002010160016801F0C4
:101DB00002010591016841F008010160016801F02C
:101DC00008010591016841F0010101600068144EAD
:101DD00000F001004FF4805505900022294630465E
:101DE000FEF7BAFF042000900E48CDE901046946D1
:101DF0000D48FEF7BBFE01200095CDE901046946C0
:101E000030460394FEF7B2FE002211460820FFF789
:101E100017F80820FFF706F806B070BD303802400A
:101E2000000C0240000021100004024010B5002206
:101E30000F49104800F03DFC08B1FEF7DDFA0E49ED
:101E40000C4800F029FE08B1FEF7D6FA0B49094804
:101E500000F02DFA08B1FEF7CFFA064800F096FE22
:101E6000002803D0BDE81040FEF7C6BA10BD000040
:101E700024000020300200207401002074000020A3
:101E8000FEE7FEE70148FFF75BB9000020180020DD
:101E90002DE9F04103680D4604461E6C03EB451125
:101EA000D1F8080BD4F810E04FF400474FF0200CA5
:101EB00004F57172BEF1010F09D0DFF898E07645A4
:101EC00039D1020432D500BFC1F8087B3FE0224B74
:101ED0005FEA007E04D59E4239D90004F4D436E08E
:101EE0005FEA806E02D5C1F808CB30E010F0280F11
:101EF0002DD19E4201D90004E6D4C5EBC50004EB08
:101F00008000D1F8101BD0F80432C1F31201591A25
:101F1000C0F81412D0F808121944C0F8081295B984
:101F2000D4F8100278B9012120680AE080060AD5A9
:101F3000C1F808CB07E035B9D4F8100218B9002170
:101F4000184601F0EFF9E9B22046FEF7DFFF002066
:101F5000BDE8F0810A31544F0A30544F2DE9F84F53
:101F60000E46C1EBC60100EB810481460568D4E949
:101F700014103C34884202D90120BDE8F88F081AB9
:101F8000A168814200D20846C01C870805EB4618AC
:101F90001BE000BFA0EB010AA068504500D28246BA
:101FA0000AF10300870899F8100000901FFA8AF3DD
:101FB000F2B22846E16801F03DFCE16801EB0A005D
:101FC000E060A16901EB0A00A061D8F8180980B2AD
:101FD000B84205D3D4E90501814201D20028D9D104
:101FE000D4E90501884208D806F00F010120884095
:101FF000D5F834188143C5F834180020BDE7704780
:1020000070470178407841EA00207047FEF7B0BE83
:1020100030B593B030216846FEF71EF914210CA8A4
:10202000FEF71AF91C480025016841F08051016053
:10203000006800F0805011901848016841F4804118
:1020400001600068022400F480401190012000909B
:10205000000401908001CDE9064004200890A820EA
:10206000CDE9090407200B906846FFF781FC08B111
:1020700072B6FEE70F20CDE90C0480200E904001DF
:10208000CDE90F0502210CA8FFF7A2FB002801D023
:1020900072B6FEE713B030BD403802400070004019
:1020A0000248016841F470010160704788ED00E06A
:1020B0002DE9F0410C46D0F8C422D0F8BC12F9B199
:1020C00004EB840300EB83050026AB694BB1C4EB42
:1020D000C40702EB8702526CB3FBF2F702FB173224
:1020E00082B1C1F81461D0F8C00203692BB1D1F8F4
:1020F0000801224601F5887198470020BDE8F0816B
:102100000320FBE700231A462146AE6100F0A5FC40
:10211000F3E770B5D0F8BC4205466CB100F086FB21
:10212000C4F80C01D5F8C012D4F80401CA6804F54B
:1021300086719047002070BD032070BD70B50446C5
:10214000812100F0D2FA002525870121204600F0E8
:10215000CCFAA4F878518221204600F0C6FAA4F8FF
:102160004C50A4F84E50D4F8BC0248B1D4F8C00288
:1021700004F52F7440688047206800F05CFE2560FD
:10218000002070BD10B5D0F8BC4284B1D0F8C012A8
:1021900059B194F80001FF2807D08B6894F8012109
:1021A00021469847FF2084F80001002010BD03203D
:1021B00010BD00000A210180004870479C000020EB
:1021C0004321018000487047EC000020432101803A
:1021D00000487047A8000020432101800048704754
:1021E000300100202DE9F04704464FF48E7000F0D6
:1021F00023FE05004FF0000735D0C4F8BC52207C08
:102200004FF010084FF48079012680B3402302225A
:102210008121204600F06EFB268740230222012107
:10222000204600F067FBA4F87861A4F84E800823EC
:1022300003228221204600F05DFBA4F84C60D4F814
:10224000C00200688047C5F81471C5F81871207C79
:10225000D5F80421A8B140230121204600F056FB07
:102260000020BDE8F0870220C4F8BC72F9E7FFE760
:102270004B4602228121204600F03CFB26874B463C
:10228000CCE74B46E8E710B5D0F8BC1251B1027C60
:10229000002AD1F8042107D04023012100F036FBA9
:1022A000002010BD032010BD4FF48073F5E719B175
:1022B000C0F8C0120020704703207047D0F8BC025D
:1022C00018B1C0F804110020704703207047D0F8FF
:1022D000BC0228B1C0F81021C0F8081100207047D6
:1022E000032070472DE9FC410646D0F8BC7200205F
:1022F0000C468DF80000ADF80400054637B1207893
:1023000010F0600128D0202944D102E00320BDE86C
:10231000FC81E288C2B1000660780AD5D6F8C01206
:102320008B6839469847E288072A00D90722394640
:1023300028E087F80001A07987F80101E288394692
:10234000304600F06CF82AE0D6F8C012607800221F
:102350008B682146984722E0607830B101281ED072
:102360000A2809D00B2815D110E096F89C02032802
:1023700010D1022201A905E096F89C02032809D198
:1023800001226946304600F064F808E096F89C02A5
:10239000032804D02146304600F036F803252846AD
:1023A000B5E710B5D0F8BC12012219B1D1F814313B
:1023B00013B10FE0032010BD0122C1F81421D1F8A0
:1023C0001021C262D1F81031D1F80821812100F02A
:1023D00044FB0022104610BD10B5D0F8B8220AB157
:1023E00052689047002010BD134610B50A460021E0
:1023F00000F08CFA002010BD134610B50A460021EB
:1024000000F02BFB002010BD10B50446802100F029
:1024100009FB2046BDE81040002100F003BB10B5C9
:102420000323C0F89432C0F858211346C0F85C2149
:102430000A46002100F06AFA002010BD10B50521FF
:10244000C0F8941200231A46194600F05FFA0020E3
:1024500010BD10B50223C0F8943282611346C261E8
:102460000A46002100F0F9FA002010BD10B5042141
:10247000C0F8941200231A46194600F0EEFA002024
:1024800010BD000010B50A46024903A000F0E1F8B3
:10249000004810BD0005002043444320436F6E6692
:1024A000696700001220088000487047440000203F
:1024B00010B50A46024903A000F0CBF8004810BD51
:1024C0000005002043444320496E746572666163D1
:1024D000650000000420088000487047400000208C
:1024E00010B50A46024903A000F0B3F8004810BD39
:1024F0000005002053544D6963726F656C65637409
:10250000726F6E696373000010B50A46024903A03A
:1025100000F09FF8004810BD0005002053544D33D3
:1025200032205669727475616C20436F6D506F7202
:102530007400000010B51A2008800A480168001DC8
:102540000468001D0068081809D008220649FFF732
:10255000DBFB0549042210312046FFF7D5FB02487A
:10256000801E10BD107AFF1F5A000020F8B50446E7
:102570000020ADF8000048880D46010A08295FD206
:10258000DFE801F05E0409175E5E3C45D4F8B41242
:10259000207C0A6819E0207C02260028D4F8B802C2
:1025A00005D0C16A684688470146467039E0816AAD
:1025B000F8E7C0B2062843D2DFE800F0030A10149F
:1025C000181CD4F8B402426805E0694690471CE044
:1025D000D4F8B402826892B3207CF6E7D4F8B4024F
:1025E000C268F8E7D4F8B4020269F4E7D4F8B40298
:1025F0004269F0E7D4F8B4028269ECE7207CF0B9D4
:10260000D4F8B802416B68468847014609E0207C4F
:10261000A8B9D4F8B802016B68468847014607207C
:102620004870EA888AB1BDF8000040B1824200D902
:102630000246ADF800202046FFF70BFFF8BDFFE78C
:1026400029462046FFF7E0FEF8E72046FFF70EFF99
:10265000F4E770B5002300281ED00025044602E0F0
:102660006D1CEDB2641C2678002EF9D1022404EB17
:10267000450414801278CA545B1C0322CA540024F7
:102680005B1C06E0CA545B1CDAB28C54521CD3B2F9
:10269000401C0278002AF5D170BD01004FF0000007
:1026A00004D0012901D0022901D003207047012064
:1026B000704778B10023C0F8B832C0F8C032C0F813
:1026C000CC3209B1C0F8B412012180F89C1202701A
:1026D00000F0B0B80320704710B5D0F8C402FEF780
:1026E00049FCBDE81040FFF7D8BF10B5D0F8C402D0
:1026F000FEF71AFCBDE81040FFF7CFBF70B51646D5
:10270000044621B194F89C02032841D048E0D4F853
:10271000941204F114000025022932D1D0E90231CB
:102720008B4206D95A1A826031462046FFF764FE72
:102730000FE0994214D14068884211D3D4F898121E
:1027400088420DD2002211462046FFF755FEC4F8FC
:10275000985200231A461946204600F0D7F810E098
:1027600094F89C02032805D1D4F8B802C16809B1D5
:10277000204688478021204600F054F92046FFF784
:102780005DFE94F8A00201280AD184F8A05207E067
:10279000D4F8B80242691AB120469047002800D107
:1027A000002070BD10B51346044621B194F89C0278
:1027B000032823D02AE0D4F8941204F5AA70032940
:1027C00024D1D0E9021291420AD98A1A8260C068E3
:1027D000824200D3024619462046FFF705FE15E067
:1027E00094F89C02032805D1D4F8B802016909B114
:1027F000204688472046FFF739FE07E0D4F8B802A4
:1028000082691AB120469047002800D1002010BDEF
:102810000020704710B5012180F89C12D0F8B82232
:1028200012B1526801799047002010BDD0F8C4025F
:10283000FEF7CEBB10B5017839BB15490222C1F8AD
:102840000404C0F8C4124FF0A0400860042048609F
:102850000020C1E90320C1E9062008624862C8627D
:1028600008630846FEF78EFE08B1FDF7C5FD80211E
:102870000748FEF718FB402200210548FEF717FB2A
:10288000802201210248FEF712FB002010BD00004B
:10289000201800200A0601F07F01D0F8C402C1EB25
:1028A000C10100EB810002D590F83E00704790F81E
:1028B000FE01704710B5D0F8B82222B190F89C32D2
:1028C000032B02D004E0032010BD126A02B190472E
:1028D000002010BD10B5D0F8B82222B190F89C327B
:1028E000032B02D004E0032010BD526A02B19047CE
:1028F000002010BD10B51C461346D0F8C402224675
:10290000FEF76FFBBDE81040FFF7C7BE10B5D0F86B
:10291000C402FEF796FBBDE81040FFF7BEBE70B5DF
:102920000125044680F89C520020C4F8940260609F
:10293000C4F8A402D4F8B802E0B1D4F8BC1221B1B2
:10294000426812B1002120469047002240231146E0
:102950002046FFF7CFFF4026A4F8645133460022FB
:1029600080212046C4F86061FFF7C4FFA5840020E1
:10297000266270BD032070BD90F89C12042903D11B
:1029800090F89D1280F89C120020704710B5D0F886
:10299000B81221B190F89C22032A02D004E003204F
:1029A00010BDC96901B18847002010BD0174002025
:1029B000704710B5D0F8C402FEF7B6FEBDE810406F
:1029C000FFF76BBE70B5044600F2AA20054600F082
:1029D0004DF80120C4F89402B4F8B002C4F898028B
:1029E00094F8AA0210F01F010AD001290ED0022982
:1029F00012D000F080012046BDE8704000F012B80F
:102A000029462046BDE8704000F0C2B8294620465D
:102A1000BDE8704000F0E6B929462046BDE87040A8
:102A200000F040B910B5D0F8C402FEF72EFBBDE8A7
:102A30001040FFF732BE10B5D0F8C402FEF78FFE8B
:102A4000BDE81040FFF729BE90F89C1280F89D1257
:102A5000042180F89C120020704710B5D0F8C40201
:102A6000FEF74DFBBDE81040FFF717BE70B50546F9
:102A700011F8010B2870087868704C1C2046FFF78D
:102A8000C0FA6880A41C2046FFF7BBFAA880A01CEF
:102A9000FFF7B7FAE88070BD38B504460020ADF8FE
:102AA000000049B1C4F8B812C96A19B1684688472C
:102AB000C4F8CC02002038BD032038BD02460320F4
:102AC000D2F8B832002B02D01B6810461847704766
:102AD0002DE9F0410F462C4E8978002504463170CF
:102AE000012906D939462046FFF78EFC0320BDE8B0
:102AF000F08194F89C0202280CD003281DD039469E
:102B00002046FFF781FC31782046FFF765FC03255E
:102B10002846ECE799B320466160FFF7CFFF050038
:102B200004D039462046FFF76FFCF1E72046FFF757
:102B30009DFC032084F89C02EAE74FF00208C1B133
:102B4000606888421BD0C1B22046FFF745FC31784F
:102B500020466160FFF7B2FF050010D039462046DD
:102B6000FFF752FC21792046FFF736FC84F89C825F
:102B7000CEE784F89C8220466160FFF72DFC20465A
:102B8000FFF774FCC4E7000098000020FFF753BF74
:102B90002DE9F0410A78002512F0600208D0202AC1
:102BA00001D0402A71D1D0F8B8229268904731E024
:102BB0004B78002201260A2B67D2DFE803F0415E42
:102BC0006658660805662D29FFF7D0FC5FE00446CD
:102BD0008888D8B9C888C8B94888802816D200F033
:102BE0007F0794F89C02032810D084F89E7239461F
:102BF0002046FFF7DEFE2046FFF738FC1FB102201B
:102C000084F89C0243E084F89C6240E020463CE06B
:102C1000FFF75EFF05463AE0CB88012B35D190F8EF
:102C20009C32012B04D0022B02D0032B2DD104E0C7
:102C30008260012200F1080116E00122011D13E06B
:102C400090F89C22012A03D0022A01D0032A1CD129
:102C5000CA88022A19D1C660D0F8A41209B103218A
:102C6000C160022200F10C01FFF7F3FB0FE049887D
:102C700001290CD1C0F8A46211E090F89C32012B1C
:102C800008D0022B06D0032B04D0FFF7BDFB28464B
:102C9000BDE8F08149880129F9D1C0F8A422FFF7E5
:102CA000E5FBF4E72DE9F0410D46044628780026BF
:102CB000097910F060000BD0202801D040286DD198
:102CC000D4F8B8022946826820469047064686E036
:102CD0006878A8B3012822D003287CD194F89C02FC
:102CE000022802D0032876D10BE0002973D0802976
:102CF00071D02046FFF796FE80212046FFF792FE16
:102D00006DE0688838B931B1802904D0E88810B9FD
:102D10002046FFF787FE2046FFF7A8FB5FE094F808
:102D20009C020228E1D0032855D16888A8BB480638
:102D300002D02046FFF7D0FC2046FFF797FBBFE705
:102D4000FFE794F89C020027022802D0032842D112
:102D500011E009B180293ED1080601F07F0000EBA7
:102D6000800004EB800101D5143101E001F5AA7166
:102D700002220F602BE0080601F00F0000EB80003C
:102D800004EB80000BD5808C40B101F07F0000EB9C
:102D9000800004EB800514350CE020E01BE0B0F867
:102DA0006401C0B101F07F0000EB800004EB8005FE
:102DB00005F5AA7541B1802906D02046FFF76AFDC6
:102DC00010B10120286000E02F6002222946204631
:102DD000FFF73FFB03E029462046FFF715FB30468F
:102DE000BDE8F08170B50646087800240D4610F065
:102DF000600003D0202801D0402817D196F89C020B
:102E0000012803D0022801D003280FD128790128F6
:102E10000CD8D6F8B8028268304690470446E88855
:102E2000204306D13046FFF721FB02E03046FFF792
:102E3000EBFA204670BD704700487047001700202D
:102E400070B50A78012302F00F054E78AB401B4C99
:102E5000D0F81C58012E17D045EA0343C0F81C389F
:102E600000EB4210D0F8002B12040BD4D0F8002B4A
:102E70000B89C978C3F30A031A4344EA81410A4320
:102E8000C0F8002B002070BD9BB21D43C0F81C5839
:102E900000EB4210D0F800391B04F3D4D0F800390D
:102EA0000D89C978C5F30A0589042B4341EA82518B
:102EB0000B432343C0F80039E4E700000080001012
:102EC000D0F800196FF30A01C0F80019D0F80418FF
:102ED00041F48071C0F804180020704770B50446B2
:102EE00006990A9E049D0D98012916D0E06840F0CD
:102EF0004000E060204600F02BF8A16B1EB321F4E7
:102F00008031A163012D07D1A16841F00601A160C4
:102F1000A16841F02001A16070BDA16B21F4803156
:102F2000A163E168094A1140E160E16821F44011C0
:102F3000E160012803D1E06840F48010E0602046A1
:102F400000F006F8DEE741F48031DAE7BFFFBDFFAD
:102F500001220C4902E0521C8A420BD80369002B63
:102F6000F9DA026942F001020261012204E0521C16
:102F70008A4201D9032070470369DB07F7D100209B
:102F800070470000400D030030B54C780A780123EB
:102F900000EB4212012C2CD0D2F8004B002C0BDAA3
:102FA000D2F8004B44F00064C2F8004BD2F8004B5A
:102FB00044F08044C2F8004BD0F83C580C7804F040
:102FC0000F0403FA04F425EA0444C0F83C48D0F89E
:102FD0001C48097801F00F018B4024EA0341C0F836
:102FE0001C18D2F8000B19490840C2F8000B002049
:102FF00030BDD2F80049002C0BDAD2F8004944F079
:103000000064C2F80049D2F8004944F08044C2F894
:103010000049D0F83C480D7805F00F0503FA05F596
:10302000ADB2AC43C0F83C48D0F81C48097801F078
:103030000F018B4099B28C43C0F81C48D2F80009AC
:1030400003490840C2F80009D1E700000078F3EF17
:10305000007833ECD0F8001E21F00301C0F8001E08
:10306000D0F8041821F00201C0F8041800207047BD
:10307000D0F8001E21F00301C0F8001ED0F804189B
:1030800041F00201C0F80418002070472DE9F04F0C
:1030900000250E460446DDF82CC0DDF824B0109F54
:1030A0002846294604EB8002C2F80411401C0F2870
:1030B000F8D32046C7B1806B20F40012A263A06B46
:1030C00040F40022A26308468846C4F8000ED4F8F3
:1030D00000182046C4F80018BCF1010F16D0D0F833
:1030E000001841F0030116E0D0F8040840F0020295
:1030F000C4F80428A06B40F40012A263A06B20F473
:103100000022A263A06B20F48022DBE7D0F8001835
:103110000BB141F00101C0F80018102100F090FA45
:1031200000B10125204600F07BFA00B101254046A0
:10313000C4F81088C4F81488C4F81C8800214FF023
:1031400000694FF0904A4FF67F3314E004EB4112D0
:10315000D2F800C9BCF1000F06DA11B1C2F800A91B
:1031600004E0C4F8009901E0C2F80009C2F81009AF
:10317000C2F80839491C8E42E8D8002115E000BF8A
:1031800004EB4112D2F800CBBCF1000F06DA11B10A
:10319000C2F800AB04E0C4F8009B01E0C2F8000BE9
:1031A000C2F8100BC2F8083B491C8E42E8D8D4F88C
:1031B000101821F48072C4F81028A0616FF08040CC
:1031C0006061BBF1000F03D1A06940F01000A06165
:1031D000A06909490843A0610C9818B1A06940F0A2
:1031E0000800A061012F03D1A06904490843A06130
:1031F0002846BDE8F08F000000383C800400004005
:10320000816821F0010181600020704770B50D7860
:103210004E78434CEBB200EB4313012E1FD0D3F892
:10322000100B6FF31200C3F8100BD3F8100B2040F3
:10323000C3F8100B486908B188684861D3F8100BCF
:1032400040F40020C3F8100BD3F8100B8C68C4F3C3
:1032500012042043C3F8100B012A55D058E04E69E0
:10326000002ED3F8106932D06FF31206C3F810693C
:10327000D3F810692640C3F810694E698C68A642DD
:1032800000D94C61D3F8104944F40024C3F8104924
:10329000D3F810494E69C6F312063443C3F81049F7
:1032A000012A22D000EB4512D2F8003943F0044342
:1032B000C2F800394A6932B3D0F83428097801F0ED
:1032C0000F03012199400A43C0F8342826E0264024
:1032D000C3F81069D3F8104944F40024C3F8104926
:1032E000D3F810496FF31204D8E7096919B100EB5C
:1032F0004512C2F8141900EB4510D0F8001941F03E
:103300000441C0F8001909E0C86808B1C3F8140BFB
:10331000D3F8000B40F00440C3F8000B002070BD50
:10332000FFFF07E010B5036C134CA34203D9D0F89C
:10333000003B002B1EDB0023C0F8103BD0F8103BF5
:1033400043F40023C0F8103BD0F8103B43F01803BF
:10335000C0F8103BD0F8103B43F0C043C0F8103B1E
:10336000012907D1C0F8142BD0F8001B41F08021AF
:10337000C0F8001B002010BD0A30544F4A780B786B
:10338000012A00EB43100BD0D0F8002B22F40012DE
:10339000C0F8002BC978032914D0022912D017E0F5
:1033A000D0F8002922F40012C0F80029C9780329B6
:1033B00001D002290CD1D0F8001941F08051C0F899
:1033C000001905E0D0F8001B41F08051C0F8001B47
:1033D000002070470A784B78D1B200EB4110012BE6
:1033E00012D0D0F8001B002906DB2AB1D0F8001B50
:1033F00021F08041C0F8001BD0F8001B41F40011FF
:10340000C0F8001B00207047D0F80019002906DB27
:103410002AB1D0F8001921F08041C0F80019D0F885
:10342000001941F40011C0F80019EBE7F8B50C7869
:103430004F78774DE3B26FF0604600EB4313012FF6
:1034400026D0D3F8104B6FF31204C3F8104BD3F807
:10345000104B2C40C3F8104B4C69002C74D08D6875
:103460002C44641EB4FBF5F4D3F8105BA4B206EA56
:10347000C4463543C3F8105BD3F8105B8E686643CF
:10348000C6F312042543C3F8105B012A71D0A6E0ED
:103490004F691FB3D3F810796FF31207C3F810798F
:1034A000D3F810792F40C3F810794F698D682F44F5
:1034B0007F1EB7FBF5F506EAC545D3F8106935431D
:1034C000C3F81059D3F810594E69C6F312063543A4
:1034D000C3F81059CD78012D10D01BE0D3F8106936
:1034E0002E40C3F81069D3F8105945F40025C3F8ED
:1034F0001059D3F810596FF3120509E0D3F8105999
:1035000025F0C045C3F81059D3F8105945F00055BF
:10351000C3F81059012A18D000EB4413D3F800491E
:1035200044F00444C3F80049CC78012C2FD04A69F8
:1035300062B3D0F83428097801F00F0301219940D3
:103540000A43C0F8342860E036E00A691AB100EB9B
:103550004413C3F81429C97801290FD1D0F80818E9
:10356000C90500EB4411D1F8002903D442F0005200
:1035700002E030E042F08052C1F8002900EB441034
:10358000D0F8001941F00441C0F800193DE0D0F82E
:103590000848E405D3F8004902D444F0005401E09F
:1035A00044F08054C3F8004900928A8A93B20A78A2
:1035B000C96800F03FF928E0D3F8104B8D68C5F3D7
:1035C00012052C43C3F8104BD3F8104B44F40024DD
:1035D000C3F8104B59E7CA680AB1C3F8142BC9786D
:1035E00001290CD1D0F80808C005D3F8000B02D48B
:1035F00040F0005001E040F08050C3F8000BD3F8D9
:10360000000B40F00440C3F8000B0020F8BD0000A0
:10361000FFFF07E0816841F00101816000207047F1
:10362000002110220261054A491C914201D9032060
:1036300070470369DB06F7D400207047400D030094
:103640000022202343EA811101610549521C8A426C
:1036500001D90320704703699B06F7D40020704707
:10366000400D0300D0F8080810F0060004D002282E
:1036700003D0062801D00F20704702207047406910
:1036800000F001007047D0F81818D0F81C08084066
:1036900080B27047D0F81818D0F81C080840000C09
:1036A000704710B5D0F81038D0F8342801F00F0466
:1036B00000EB4110E24002F00102D0F8080943EAB1
:1036C000C212104010BD00EB4111D1F8081BD0F818
:1036D0001408084070474169806908407047D21C4F
:1036E00010B59308002200F5805002E00468521CD7
:1036F00010C19A42FAD3084610BD10B5C26822F034
:10370000C042C260012902D029B1012010BDC168A8
:1037100041F0005102E0C16841F08041C1603220B7
:10372000FDF704FA002010BDD0F8002822F4FE6254
:10373000C0F80028D0F800284FF4FE6303EA011116
:103740000A43C0F80028002070470000022A3ED13A
:10375000264A274B0A449A4201D20F2138E0254AD3
:10376000254B0A449A4201D20E2131E0234A244BD0
:103770000A449A4201D20D212AE0224A224B0A44ED
:103780009A4201D20C2123E0204A214B0A449A425A
:1037900001D20B211CE01F4A1F4B0A449A4201D25E
:1037A0000A2115E01D4A1E4B0A449A420FD31D4AB6
:1037B0001D4B0A449A4201D2082109E01B4A1144D8
:1037C0001B4A914201D2072102E0062100E00921B3
:1037D000C26822F47052C260C2684FF4705303EAA8
:1037E00081210A43C260002070470000405327FF38
:1037F00000350C00401E1BFF40420F0000DC0BFF99
:10380000804F1200808CF9FE20D6130060B6E5FED2
:1038100060E3160000D3CEFE40771B00C05BB3FE12
:10382000C091210000CA91FE20753800E05459FE75
:10383000E09C410010B5029C64B9DB1C9C0800EBC5
:103840000230002300F5805002E004C902605B1CD6
:10385000A342FAD3002010BDFEE700000FB4084BCE
:1038600010B504A902AA039800F02CF8044602A996
:10387000002000F087F9204610BC5DF814FB000022
:10388000853B00080907090E002804DB00F1E02051
:1038900080F80014704700F00F0000F1E02080F87D
:1038A000141D704702E008C8121F08C1002AFAD18F
:1038B00070477047002001E001C1121F002AFBD1B0
:1038C000704700002DE9FF4F8DB09B460F46044620
:1038D000002606E025280BD05A460F999047641C15
:1038E000761C20780028F5D111B03046BDE8F08F65
:1038F0000025A8460122984900E0054314F8013F3D
:10390000203B02FA03F00842F7D120782E2817D185
:1039100014F8010F45F004052A280ED06FF02F028D
:103920002078A0F1300109290AD808EB880102EBC0
:10393000410100EB0108641CF2E757F8048B641C9A
:1039400020786C280DD004DC4C2812D06A2811D1C4
:1039500004E074280DD07A280CD10AE045F4001553
:1039600007E0617845F48015814202D1641C05F5B9
:103970008015641C2078692844D008DC0028B3D066
:10398000582867D063280FD0642808D13AE07028FF
:1039900065D0732812D075285AD078285AD05A4644
:1039A0000F999047761CD5E017F8040B8DF80000AE
:1039B00000208DF80100E946012003E057F8049B40
:1039C0004FF0FF3069074FF0000501D40AE06D1C8D
:1039D00045450DDA8542FADB19F805100029F6D1C4
:1039E00006E06D1C8542FCDB19F805100029F8D1B2
:1039F0002E4404E019F8010B5A460F9990476D1EAA
:103A0000F8D2A7E00A200021CDE90801C5F3025051
:103A100002280CD001CFC117021E71F100020CDA8E
:103A20000023D0EB030063EB01012D2208E0FF1D12
:103A300027F00707F7E80201EEE72A0504D52B2255
:103A40008DF8282001223CE0EA073AD02022F7E74F
:103A50000A2000E010200021CDE9080107E0102035
:103A6000002145F00405CDE908014FF00808C5F331
:103A70000250022810D001CF00214FF0000A2A077F
:103A800020D52278702A0DD0DDE908C38CF0100C07
:103A90005CEA030C0CD015E0FF1D27F00707F7E8E0
:103AA0000201EAE740228DF828204FF0010A0CE0DD
:103AB00050EA010306D030238DF828308DF82920F4
:103AC000022292462278582A04D024A20DF120091D
:103AD0000B9209E026A2F9E7DDE90823FCF772FB67
:103AE0000B9B9B5C09F8013D50EA0102F4D1ADEB60
:103AF000090020300890680701D44FF001080899A8
:103B0000884503DD0898A8EB000000E0002080460F
:103B1000002506E00AA85A46405D0F9990476D1CA3
:103B2000761C5545F6DB04E030205A460F99904745
:103B3000761CB8F10001A8F10108F5DC05E019F8E0
:103B4000010B5A460F999047761C0899481E089019
:103B50000029F4DC641CC4E609280100303132334A
:103B600034353637383961626364656600000000B9
:103B700030313233343536373839414243444546A3
:103B8000000000000A68531C0B60107070470000B2
:103B90009AB0FDF7F5F8FEF73BFAFEF7F3F8FEF7FB
:103BA000CFF8FEF743F94EA30DF1500C0FCB8CE884
:103BB0000F0014A8FCF75BFB81B214A8FCF7FAFB1A
:103BC0004B4801260025C0E905567103C561016017
:103BD0004FF4015141604FF4025181604FF40351A1
:103BE000C0E90315C0E9086501462838FCF786FCE2
:103BF00008B172B6FEE73E482838FCF763FF08B10B
:103C000072B6FEE73A4803212838FCF7F7FB394C37
:103C100008B172B6FEE7606800280CDD364A37A1AD
:103C20006846FFF71BFE6846FCF721FB81B2684639
:103C3000FCF7C0FB6560A06830B32D4821784430A4
:103C400001F58072C0E9002508228560C0E90352B1
:103C50000575284802221C30A0F10C03057046703F
:103C600082700322C2700422027105224271062270
:103C70008271C171491C21701D4902464431A1F174
:103C80006C00FCF7CDFBA560E06800280EDD024665
:103C900008280FD01BA107A8FFF7E0FD07A8FCF735
:103CA000E6FA81B207A8FCF785FBE5606420FCF723
:103CB0003DFFB0E70F481430437990F807C087798B
:103CC0000179CDE90313CDE9057C4178C778837884
:103CD0008DE88A0003780FA107A8FFF7BFFDDDE795
:103CE00048656C6C6F2C20776F726C640A00000062
:103CF000D40100200000002000070020476F74203E
:103D000025730A00476F74202564206279746573F7
:103D10000A00000025643A202558202558202558FF
:103D20002025582025582025582025582025580A78
:103D30000000000000000000000000000102030479
:103D400006070809643D000800000020AC010000DF
:103D5000E0020008283E0008AC0100207C1E0000A4
:103D6000B4380008012413A5241B08D5041AE10463
:103D70001309251B0835041A850C1AB1041704030E
:103D8000090412011402020216408304405726025D
:103D900001020301031A1A031359031B0855041ADD
:103DA00051041A7D041AB10419331182105324F4FA
:103DB000130A0632022A401C1C0902435B1125C06B
:103DC0003209041B01020B130524161001052401FE
:103DD00010090104240202052406170107058203C5
:103DE000081C10090491320A15070501021A01077F
:103DF0002A81070938442A40072A8107112B09071D
:103E0000440A3B044413E5211B083D0413E5224208
:103E1000081A850C13B1201B081308C11ACD101AFB
:083E2000C1041AD9041AB5040B
:040000050800018965
:00000001FF
